:1000000012C02CC02BC02AC029C028C027C026C0BF
:1000100025C024C023C022C021C020C01FC01EC0D4
:100020001DC01CC01BC011241FBECFE5D4E0DEBF25
:10003000CDBF10E0A0E6B0E0E4EDF7E002C005902F
:100040000D92A837B107D9F720E0A8E7B0E001C0CA
:100050001D92A638B207E1F744D1BAC3D1CFEF92CF
:10006000FF920F931F93CF93DF93C0E6D0E00AE790
:1000700010E00F2EF8E7EF2EF0E0FF2EF02D299183
:1000800039914991599160E070E080E89FE304D292
:1000900020E030E04AE754E4EDD220E030E040E0F8
:1000A0005FE3E8D261D2F801619371938F01CE15BD
:1000B000DF0529F7DF91CF911F910F91FF90EF900E
:1000C000089583309105D1F034F48130910551F0D9
:1000D000029771F0089585309105E1F0ACF0069734
:1000E000F9F00895B09902C0C09A0895C098089593
:1000F000B19902C0C19A0895C1980895B29902C0F9
:10010000C29A0895C2980895B39902C0C39A0895F7
:10011000C3980895B49902C0C49A0895C4980895E4
:10012000B59902C0C59A0895C59808953F924F9217
:100130005F926F927F928F929F92AF92BF92CF9277
:10014000DF92EF92FF920F931F93CF93DF939899D3
:1001500008C087EA91E60197F1F700C00000989B7C
:10016000F8CF8FEF88BBC0E0D0E000E717E1EE24C6
:10017000E394F12C33243A94C12CD12C0F2EFDECB6
:100180008F2EFCEC9F2EA92CFDE3BF2EF02D98990D
:100190001CC083ED90E30197F1F700C0000098992F
:1001A0000EC096E0E916F10424F42FEFE21AF20AE9
:1001B00003C0EE24E394F12C38BA0C2D1D2D87EAF0
:1001C00091E60197F1F700C00000999942C083EDD4
:1001D00090E30197F1F700C00000999934C08701BE
:1001E00001501109F801EE0FFF1FEE0FFF1FE05A3B
:1001F000FF4F60817181828193819B01AC01E8D0C6
:100200002B013C0120E030E040E251E42FD21816EF
:1002100064F0000F111F000F111FF801E05AFF4F8B
:1002200040825182628273820BC0000F111F000F47
:10023000111FF801E05AFF4F80829182A282B3829F
:100240000EDF0C2D1D2D87EA91E60197F1F700C016
:1002500000009A990BC083ED90E30197F1F700C07D
:1002600000009A9903C08FEF88BB29C08091780065
:100270009091790001969093790080937800883866
:1002800023E1920729F4C0927800D09279000AC045
:10029000F701EE0FFF1FE858FF4F6081718171D2A7
:1002A000892B11F4C7010DDF21960C171D0739F0BA
:1002B00089EF90E00197F1F700C0000068CFDF916F
:1002C000CF911F910F91FF90EF90DF90CF90BF9053
:1002D000AF909F908F907F906F905F904F903F90E6
:1002E00008958FEF87BB88BB14BA87E085BBB7DE64
:1002F000CAE7D0E0809178009091790001969093C0
:10030000790080937800688179813BD2892B19F438
:1003100081E090E0D6DE80917800909179006A814A
:100320007B812FD2892B19F482E090E0CADE809184
:100330007800909179006C817D8123D2892B19F40A
:1003400083E090E0BEDE80917800909179006E812C
:100350007F8117D2892B19F484E090E0B2DE80917E
:10036000780090917900688579850BD2892B19F4F2
:1003700085E090E0A6DE80917800909179006A8512
:100380007B85FFD1892B19F486E090E09ADE89EF16
:1003900090E00197F1F700C0000080917800909103
:1003A00079008838934121F41092790010927800F6
:1003B0009899A0CF8FE39DE023E0815090402040AA
:1003C000E1F700C00000989995CFB0DE93CF505868
:1003D000BB27AA270ED010C101D130F006D120F0E2
:1003E00031F49F3F11F41EF4F6C00EF4E095E7FBE4
:1003F000ECC0E92F12D180F3BA17620773078407A4
:10040000950718F071F49EF52AC10EF4E0950B2EB5
:10041000BA2FA02D0B01B90190010C01CA01A00156
:100420001124FF27591B99F0593F50F4503E68F1B1
:100430001A16F040A22F232F342F4427585FF3CFF2
:10044000469537952795A795F0405395C9F77EF4C3
:100450001F16BA0B620B730B840BBAF09150A1F00C
:10046000FF0FBB1F661F771F881FC2F70EC0BA0F92
:10047000621F731F841F48F4879577956795B7951A
:10048000F7959E3F08F0B3CF9395880F08F0992712
:10049000EE0F9795879508950CD0AEC0A6D040F08A
:1004A0009DD030F021F45F3F19F08FC05111D8C0BA
:1004B00092C0B3D098F39923C9F35523B1F3951B98
:1004C000550BBB27AA2762177307840738F09F5F75
:1004D0005F4F220F331F441FAA1FA9F333D00E2EE4
:1004E0003AF0E0E830D091505040E695001CCAF751
:1004F00029D0FE2F27D0660F771F881FBB1F261716
:1005000037074807AB07B0E809F0BB0B802DBF01E8
:10051000FF2793585F4F2AF09E3F510568F055C062
:100520009FC05F3FECF3983EDCF386957795679527
:10053000B795F7959F5FC9F7880F911D9695879599
:1005400097F90895E1E0660F771F881FBB1F6217B8
:1005500073078407BA0720F0621B730B840BBA0B76
:10056000EE1F88F7E095089504D06894B11178C023
:1005700008955BD088F09F5790F0B92F9927B75115
:10058000A0F0D1F0660F771F881F991F1AF0BA9557
:10059000C9F712C0B13081F062D0B1E008955FC0F8
:1005A000672F782F8827B85F39F0B93FCCF386954D
:1005B00077956795B395D9F73EF4909580957095AA
:1005C00061957F4F8F4F9F4F089597F99F6780E800
:1005D00070E060E008959FEF80EC089500240A9495
:1005E0001616170618060906089500240A9412160E
:1005F0001306140605060895092E0394000C11F441
:10060000882352F0BB0F40F4BF2B11F460FF04C0ED
:100610006F5F7F4F8F4F9F4F089557FD9058440F46
:10062000551F59F05F3F71F04795880F97FB991F51
:1006300061F09F3F79F0879508951216130614060E
:10064000551FF2CF4695F1DF08C01616170618069B
:10065000991FF1CF86957105610508940895E89476
:10066000BB2766277727CB0197F9089566D008F452
:100670008FEF08950BD0C0CFB1DF28F0B6DF18F0B0
:10068000952309F0A2CFA7CF1124EACFC6DFA0F3AC
:10069000959FD1F3950F50E0551F629FF001729F17
:1006A000BB27F00DB11D639FAA27F00DB11DAA1F36
:1006B000649F6627B00DA11D661F829F2227B00D83
:1006C000A11D621F739FB00DA11D621F839FA00D0E
:1006D000611D221F749F3327A00D611D231F849F5E
:1006E000600D211D822F762F6A2F11249F575040B5
:1006F0008AF0E1F088234AF0EE0FFF1FBB1F661F50
:10070000771F881F91505040A9F79E3F510570F008
:100710005CCFA6CF5F3FECF3983EDCF386957795F0
:100720006795B795F795E7959F5FC1F7FE2B880F03
:10073000911D9695879597F90895990F0008550F83
:10074000AA0BE0E8FEEF16161706E807F907C0F057
:1007500012161306E407F50798F0621B730B840B5F
:10076000950B39F40A2661F0232B242B252B21F439
:1007700008950A2609F4A140A6958FEF811D811DD9
:10078000089597FB072E16F4009406D077FD08D045
:100790000BD007FC05D03EF4909581959F4F0895AE
:1007A000709561957F4F0895AA1BBB1B51E107C04F
:1007B000AA1FBB1FA617B70710F0A61BB70B881FF1
:1007C000991F5A95A9F780959095BC01CD01089580
:0407D000F894FFCFCB
:1007D4000000803F0000803F0000803F0000803F19
:0807E4000000803F0000803F8F
:00000001FF
