S01700004763634170706C69636174696F6E312E737265635B
S113000012C02CC02BC02AC029C028C027C026C0BB
S113001025C024C023C022C021C020C01FC01EC0D0
S11300201DC01CC01BC011241FBECFE5D4E0DEBF21
S1130030CDBF10E0A0E6B0E0E8EEF6E002C0059027
S11300400D92A837B107D9F720E0A8E7B0E001C0C6
S11300501D92A638B207E1F73ED144C3D1CFEF9247
S1130060FF920F931F93CF93DF93C0E6D0E00AE78C
S113007010E00F2EF8E7EF2EF0E0FF2EF02D29917F
S113008039914991599160E070E080E89FE38ED105
S113009020E030E04AE754E477D220E030E040E06A
S11300A05FE372D2EBD1F801619371938F01CE15A6
S11300B0DF0529F7DF91CF911F910F91FF90EF900A
S11300C0089583309105D1F034F48130910551F0D5
S11300D0029771F0089585309105E1F0ACF0069730
S11300E0F9F00895B09902C0C09A0895C09808958F
S11300F0B19902C0C19A0895C1980895B29902C0F5
S1130100C29A0895C2980895B39902C0C39A0895F3
S1130110C3980895B49902C0C49A0895C4980895E0
S1130120B59902C0C59A0895C59808953F924F9213
S11301305F926F927F928F929F92AF92BF92CF9273
S1130140DF92EF92FF920F931F93CF93DF939899CF
S113015008C087EA91E60197F1F700C00000989B78
S1130160F8CF8FEF88BBC0E0D0E000E717E1EE24C2
S1130170E394F12CCC24CA94D12C312C0F2EFAE028
S11301808F2EF7ED9F2EF3E2AF2EFCE3BF2EF02D62
S113019098991CC083ED90E30197F1F700C000002B
S11301A098990EC096E0E916F10424F48FEFE81A4A
S11301B0F80A03C0EE24E394F12CC8BA0D2D132DD4
S11301C087EA91E60197F1F700C00000999944C0CD
S11301D083ED90E30197F1F700C00000999936C0D0
S11301E0870101501109F801EE0FFF1FEE0FFF1FE9
S11301F0E05AFF4F20E030E040E251E46081718139
S113020082819381C1D12B013C0120E030E048EC94
S113021052E4B6D1181664F0000F111F000F111F1D
S1130220F801E05AFF4F40825182628273820BC010
S1130230000F111F000F111FF801E05AFF4F8082B9
S11302409182A282B3820BDF0D2D132D87EA91E6F2
S11302500197F1F700C000009A990BC083ED90E379
S11302600197F1F700C000009A9903C08FEF88BB93
S113027020C0809178009091790001969093790044
S113028080937800F701EE0FFF1FE858FF4F60815D
S1130290718101D2892B11F4C70113DF21960C1748
S11302A01D0739F089EF90E00197F1F700C00000D5
S11302B06FCFDF91CF911F910F91FF90EF90DF905F
S11302C0CF90BF90AF909F908F907F906F905F90F2
S11302D04F903F9008958FEF87BB88BB14BA87E097
S11302E085BBBDDECAE7D0E08091780090917900AB
S11302F00196909379008093780068817981CBD1BD
S1130300892B19F481E090E0DCDE809178009091F3
S113031079006A817B81BFD1892B19F482E090E056
S1130320D0DE80917800909179006C817D81B3D189
S1130330892B19F483E090E0C4DE809178009091D9
S113034079006E817F81A7D1892B19F484E090E034
S1130350B8DE8091780090917900688579859BD189
S1130360892B19F485E090E0ACDE809178009091BF
S113037079006A857B858FD1892B19F486E090E01A
S1130380A0DE89EF90E00197F1F700C00000989992
S1130390ABCF9FE32DE083E0915020408040E1F714
S11303A000C000009899A0CFC1DE9ECF0CD0AEC093
S11303B0A6D040F09DD030F021F45F3F19F08FC0FB
S11303C05111D8C092C0B3D098F39923C9F35523DF
S11303D0B1F3951B550BBB27AA2762177307840734
S11303E038F09F5F5F4F220F331F441FAA1FA9F3EA
S11303F033D00E2E3AF0E0E830D091505040E695DC
S1130400001CCAF729D0FE2F27D0660F771F881F3C
S1130410BB1F261737074807AB07B0E809F0BB0B2B
S1130420802DBF01FF2793585F4F2AF09E3F51054F
S113043068F055C09FC05F3FECF3983EDCF38695AF
S113044077956795B795F7959F5FC9F7880F911DC5
S11304509695879597F90895E1E0660F771F881FB1
S1130460BB1F621773078407BA0720F0621B730B64
S1130470840BBA0BEE1F88F7E095089504D06894B6
S1130480B11178C008955BD088F09F5790F0B92FD0
S11304909927B751A0F0D1F0660F771F881F991FD5
S11304A01AF0BA95C9F712C0B13081F062D0B1E048
S11304B008955FC0672F782F8827B85F39F0B93F58
S11304C0CCF3869577956795B395D9F73EF49095D7
S11304D08095709561957F4F8F4F9F4F089597F941
S11304E09F6780E870E060E008959FEF80EC0895D6
S11304F000240A94161617061806090608950024FF
S11305000A9412161306140605060895092E039478
S1130510000C11F4882352F0BB0F40F4BF2B11F4EC
S113052060FF04C06F5F7F4F8F4F9F4F089557FD4B
S11305309058440F551F59F05F3F71F04795880F4D
S113054097FB991F61F09F3F79F0879508951216E4
S113055013061406551FF2CF4695F1DF08C0161690
S113056017061806991FF1CF869571056105089441
S11305700895E894BB2766277727CB0197F9089558
S113058066D008F48FEF08950BD0C0CFB1DF28F008
S1130590B6DF18F0952309F0A2CFA7CF1124EACF34
S11305A0C6DFA0F3959FD1F3950F50E0551F629FCE
S11305B0F001729FBB27F00DB11D639FAA27F00DB8
S11305C0B11DAA1F649F6627B00DA11D661F829FDF
S11305D02227B00DA11D621F739FB00DA11D621FC4
S11305E0839FA00D611D221F749F3327A00D611DE1
S11305F0231F849F600D211D822F762F6A2F1124C3
S11306009F5750408AF0E1F088234AF0EE0FFF1F15
S1130610BB1F661F771F881F91505040A9F79E3F4C
S1130620510570F05CCFA6CF5F3FECF3983EDCF34E
S1130630869577956795B795F795E7959F5FC1F789
S1130640FE2B880F911D9695879597F90895990F1C
S11306500008550FAA0BE0E8FEEF16161706E80788
S1130660F907C0F012161306E407F50798F0621BA9
S1130670730B840B950B39F40A2661F0232B242B7E
S1130680252B21F408950A2609F4A140A6958FEF9D
S1130690811D811D089597FB072E16F4009406D042
S11306A077FD08D00BD007FC05D03EF490958195DA
S11306B09F4F0895709561957F4F0895AA1BBB1BAA
S11306C051E107C0AA1FBB1FA617B70710F0A61B4E
S11306D0B70B881F991F5A95A9F780959095BC016F
S10B06E0CD010895F894FFCF49
S11306E80000803F0000803F0000803F0000803F02
S10B06F80000803F0000803F78
S9030000FC
